:020000040800F2
:10000000F0660020A10200089B230008EF220008F0
:10001000992300089D040008E13700080000000053
:10002000000000000000000000000000DD010008EA
:100030005D050008000000003902000829320008B0
:10004000BB020008BB020008BB020008BB0200089C
:10005000BB020008BB020008BB020008BB0200088C
:10006000BB020008BB020008BB020008BB0200087C
:10007000BB020008BB020008BB020008BB0200086C
:10008000BB020008BB020008BB020008BB0200085C
:10009000BB020008BB020008BB020008BB0200084C
:1000A000BB020008BB020008BB020008BB0200083C
:1000B000BB020008BB020008BB020008BB0200082C
:1000C000BB020008BB020008BB020008BB0200081C
:1000D000BB020008BB020008BB020008BB0200080C
:1000E000BB020008BB020008BB020008BB020008FC
:1000F000BB020008BB020008BB020008BB020008EC
:10010000BB0200089D230008BB020008BB020008D8
:10011000BB020008BB02000851330008BB02000804
:10012000BB020008BB020008BB020008A1040008D3
:10013000BB020008BB020008BB020008BB020008AB
:10014000BB020008BB020008BB020008BB0200089B
:10015000BB020008AD040008BB020008BB02000897
:10016000BB020008BB020008BB020008BB0200087B
:10017000BB020008BB020008BB0200080000000030
:10018000BB020008BB020008BB020008BB0200085B
:10019000BB020008BB020008BB020008BB0200084B
:1001A000BB020008BB020008BB020008BB0200083B
:1001B000BB020008BB020008BB020008BB0200082B
:1001C000BB020008BB020008DFF80CD000F0F6F814
:1001D00000480047394B0008F06600202D4B196895
:1001E0000868B0E8F04F80F30988BFF36F8F4FF0D5
:1001F000000080F311887047000000000848006884
:10020000006880F308884FF0000080F3148862B61D
:1002100061B6BFF34F8FBFF36F8F00DF00BF00BF2A
:1002200008ED00E0DFF80C00016841F470010160A6
:10023000704700BF88ED00E0EFF30980BFF36F8FD8
:10024000144B1A681EF0100F08BF20ED108A20E929
:10025000F04F106009B44FF0500072B680F311886F
:10026000BFF34F8FBFF36F8F62B605F037FC4FF0CF
:10027000000080F3118809BC19680868B0E8F04FE5
:100280001EF0100F08BFB0EC108A80F30988BFF38E
:100290006F8F704760000020EFF30580704700000B
:1002A0000648804706480047FEE7FEE7FEE7FEE710
:1002B000FEE7FEE7FEE7FEE7FEE7FEE7FD320008A9
:1002C000C90100082DE9F05F0546002092469B46D3
:1002D00088460646814640241BE02846414647465C
:1002E000224600F05AF853465A46C01A914110D39C
:1002F00011461846224600F041F82D1A67EB010816
:100300004F4622460120002100F038F817EB000983
:100310004E41201EA4F10104DFDC484631462A4646
:100320004346BDE8F09F40EA01039B0703D009E084
:1003300008C9121F08C0042AFAD203E011F8013BD1
:1003400000F8013B521EF9D27047D2B201E000F82A
:10035000012B491EFBD270470022F6E710B5134669
:100360000A4604461946FFF7F0FF204610BD421C1E
:1003700010F8011B0029FBD1801A7047202A04DBEA
:10038000203A00FA02F1002070479140C2F12003A8
:1003900020FA03F3194390407047202A04DB203AE7
:1003A00021FA02F00021704721FA02F3D040C2F195
:1003B000200291400843194670470000064C074D43
:1003C00006E0E06840F0010394E807009847103425
:1003D000AC42F6D3FFF7FCFEE068000800690008B5
:1003E000704700000146014801F0B6BAC400002081
:1003F000044810B501F0C2FA042801D0012010BD54
:10040000002010BDC400002038B501208DF8000088
:100410009DF80000012801D0022038BD064801F0F7
:1004200097FB040006D104484FF4006101F05AF92B
:1004300000B10124204638BDC400002013460A46FE
:1004400010B500240146034801F07EFC00B10124F0
:10045000204610BDC4000020034801214FF0FF32A8
:10046000406804F04DBC00003800002013460A46E6
:1004700010B500240146034801F0E8FC00B1012456
:10048000204610BDC4000020034802214FF0FF3277
:10049000406804F035BC000038000020FEE7000092
:1004A000014800F095B800002C020020014800F03F
:1004B0008FB800008C02002001681823CAB2103ADD
:1004C000B2FBF3F2054B6FF30901032A9B5CC36592
:1004D00000D9091D816508467047000018680008AA
:1004E00010B583694FF0C074826A0146002053B191
:1004F000B3F5005F15D072B1012A0CD0022A0AD0E0
:10050000032A09D104E01AB1012A06D0022A03D134
:10051000C96AC90100D5012010BDC96AA142FAD03B
:1005200010BD002AF7D0012AF2D0022AF3D0032A04
:10053000F3D010BD30B50468256825F4802525600A
:10054000046863608368402B036803D09960006887
:10055000C26030BD9A600068C16030BD70477047AE
:10056000002200F001B800000E4B70B505465C7A21
:100570000120002C14D15E7A03F108009C555E7AAC
:1005800003EB860675605D7A2A54587A421C5A72CB
:100590003A232F22303008704B7020468A70CC707E
:1005A00070BD0000B425002090F83510022903D05A
:1005B0008021416501207047052180F835100068D1
:1005C000016821F00101016000207047406D704713
:1005D0002DE9F84304464FF00009644B0820CDF89C
:1005E00000904FF41652A56D94F85C101B682E68AD
:1005F000B3FBF2F700FA01F131420FD021680A682B
:1006000052070BD50A6822F004020A6094F85C10C5
:100610008840A860606D40F00100606594F85C104F
:100620004FF0010808FA01F0304208D0216849690A
:10063000090604D5A860606D40F00200606594F87A
:100640005C1004208840304208D02168096889077E
:1006500004D5A860606D40F00400606594F85C10FB
:1006600010208840304218D021680968090714D545
:10067000A86020680168490304D50068000308D514
:10068000A16C07E00168C90503D4016821F00801E5
:100690000160216C09B12046884794F85C10202045
:1006A0008840304231D021680968C9062DD5A8603C
:1006B00094F8350005282068016806D0490347D51D
:1006C000006800031DD4616C1CE021F0160101607C
:1006D0002068416921F080014161206C08B9A06C5B
:1006E00020B12068016821F00801016094F85C30B5
:1006F0003F229A40AA6084F8349084F83580216DB6
:100700001FE0E16B09B120468847606D00282BD0BF
:10071000606DC00714D0052084F83500206801689A
:1007200021F0010101600098401C0090B84203D8FC
:1007300020680068C007F6D184F8349084F83580CA
:10074000E16C002910D001B02046BDE8F043084715
:100750000168C905D5D4036823F01003036084F849
:10076000349084F83580CCE7BDE8F883540000204D
:100770002DE9F047044600F0A9F9054664B14FF0B1
:10078000000984F83490022184F83510206801684B
:1007900021F0010101600EE00120BDE8F08700BFFB
:1007A00000F094F9401B052805D92021616503203C
:1007B00084F83500F1E720680068C007F0D1D4E97B
:1007C0000020D4E90251D4E9043C284304F118057F
:1007D00019430843116895E8E00140EA0C001C4BFE
:1007E0002843194040EA060040EA0700B8F1040F28
:1007F00040EA010003D1D4E90B1319430843106008
:1008000020680126656A4069042D20F0070045EA4A
:1008100000050CD1D4E90A01054341B12046FFF798
:100820005FFE20B14020606584F83560B4E7206841
:1008300045612046FFF740FE94F85C303F229A4025
:100840008260C4F8549084F835600020A5E7000069
:100850003F8010F02DE9F041044690F83400002567
:100860000128A66D0ED094F835C00127002084F829
:100870003470BCF1010F07D0022584F834002846FB
:10088000BDE8F0810220FBE7022784F8357060653F
:100890002046FFF74FFE94F85C103F208840B06080
:1008A0002068016841F0160101602068416941F04B
:1008B00080014161206C20B12068016841F008018D
:1008C00001602068016841F001010160D7E7000084
:1008D00070B5044600F0FAF80546601C02D00448E2
:1008E0000078044400F0F2F8401BA042FAD370BD37
:1008F000480000202DE9F84FDFF89CE100224FF07E
:1009000001084FF0030B4FF00F0A00BF0B6808FA05
:1009100002F42340A34271D14D68022D01D0122D63
:100920000FD1D5080E69570700EB8505A9462D6A3A
:10093000FF0E0AFA07FCBE4025EA0C052E43C9F853
:1009400020600F79550006680BFA05FC07F00307D5
:1009500026EA0C06AF40374307604E68012E05D0EB
:10096000022E03D0112E01D0122E0ED18668CF6830
:1009700026EA0C06AF403743876046680F79A643E6
:10098000C7F30017974037434760C4688E6824EA6E
:100990000C04AE402643C6604C68E40075D53F4C5D
:1009A000256845F480452560246822F003069507F4
:1009B00004F4804400943A4C2D0F2644D6F808489D
:1009C000DFF8E0C00AFA05F7604524EA070401D120
:1009D00000272EE0344FB84201D1012729E0334FE0
:1009E000B84201D1022724E0314FB84201D1032798
:1009F0001FE0304FB84202D104271AE045E02E4FE5
:100A0000B84201D1052714E02C4FB84201D1062786
:100A10000FE02B4FB84201D107270AE0294FB84217
:100A200001D1082705E0284FB84201D1092700E08D
:100A30000A27AF4027437546C6F808784E68DEF8A7
:100A40000040F60324EA030400D51C43124E2C6038
:100A5000361D4D683468AD0324EA030400D51C43F9
:100A60000D4F346008374D683C68ED0224EA0304FA
:100A700000D51C43084D3C600C354E682C68B6020E
:100A800024EA030400D51C432C60521C102AFFF4F6
:100A90003DAFBDE8F88F0000003C01404438024003
:100AA0000030014000000240000402400008024003
:100AB000000C0240001002400014024000180240E6
:100AC000001C0240002002400024024001488068CF
:100AD00070470000480000200248816802781144F5
:100AE0008160704748000020032010B500F08CF8AA
:100AF000002000F005F800F03DF8002010BD0000D7
:100B000010B500220146362088B000F05DF836208E
:100B100000F04CF81348016841F0100101600068D2
:100B200005A900F010000690684600F0C9FB00F02F
:100B3000E7FB0D49400000220C4CB0FBF1F10C48E2
:100B400040F2E7330460C0E90332491EC0E90112F4
:100B500001F0FBF910B1012008B010BD044801F00C
:100B600011FAF9E74038024040420F0000100040FF
:100B7000542500200C4882B0016841F0805101608A
:100B8000006800F0805000900748001D016841F4A3
:100B900080410160006800220F2100F48040009035
:100BA000901E02B000F010B840380240002809DB67
:100BB000410900F01F028900012001F1E02190406D
:100BC000C1F80001704700000E4BF0B41B680D46E1
:100BD000C3F30223C3F10706042E00D90426191D0E
:100BE000072901D2002300E0DB1E012404FA06F1EC
:100BF0009C40491E2940641E994014402143F0BC8A
:100C000002F000BE0CED00E0064900F0070210B54E
:100C10004FF6FF040868044B204040EA02201843C6
:100C2000086010BD0CED00E00000FA051848F8B5AA
:100C3000016841F0805101600068164C00F080505E
:100C40000090206840F480302060FFF73FFF4FF4B1
:100C50007A76054605E000BFFFF738FF401BB0423B
:100C60000FD86068C003F7D5206840F400302060DA
:100C7000FFF72CFF054606E0FFF728FF401BB042B8
:100C800001D90320F8BD60688003F5D50020F8BDC8
:100C900040380240007000402DE9F84F04460078CB
:100CA000DFF824944FF000063746C0070ED0D9F87D
:100CB000001021F40001C9F80010D9F80010626B8F
:100CC0001143C9F80010606B00B90126FE4D206881
:100CD000843500030ED5E16B286820F440100843EA
:100CE0002860E06BB0F5801F01D010B102E0012652
:100CF00000E0012720684FF4800BC0020CD5216C66
:100D0000286820F4400008432860206C584501D131
:100D1000012601E000B901272068C10100D50126A4
:100D2000800666D5E8483830016841F0805101609E
:100D30000068DFF898A300F080500090DAF8001007
:100D400041F48071CAF80010FFF7C0FE804605E04C
:100D5000FFF7BCFEA0EB080064287DD8DAF800009D
:100D6000C005F5D5DFF8608308F16808D8F8000001
:100D700010F440702AD0218E01F44071814225D0B8
:100D8000D8F80010D8F8002021F4407142F48032E5
:100D9000C8F80020D8F8002022F48032C8F80020DB
:100DA000C8F80010D8F80000C0070FD0FFF78EFE7B
:100DB000824607E0FFF78AFEA0EB0A0141F2883085
:100DC0008142CAD8D8F800008007F3D5206BC0F361
:100DD000012103297ED0D9F8001021F4F811C9F8B7
:100DE0000010228ED8F80010C2F30B021143C8F88D
:100DF00000102078C00607D5286820F08070286091
:100E00002868A16B084328602188AF4888304904CE
:100E100005D5626E016821F44031114301602188DB
:100E2000090405D5A26E016821F440211143016037
:100E30002168C90305D5E26E016821F44011114310
:100E400001602168890305D5226F016821F4400102
:100E500011430160217800E018E1490605D5626C74
:100E6000016821F00301114301602178090605D5CD
:100E7000A26C016821F00C01114301602188C905B1
:100E800005D5E26C016821F0300111430160218831
:100E9000890505D5226D016821F0C001114301606B
:100EA0002188490505D5626D016821F4407111431F
:100EB00001602188090505D5A26D016821F4406112
:100EC000114301602188C90407D5E26D016821F44E
:100ED000405100E041E0114301602188890405D5BB
:100EE000226E016821F440411143016021684902EA
:100EF00005D5A26F016821F080611143016021686E
:100F00004FF0006A890209D5E26F016821F00061A3
:100F100011430160E16F514500D1012721680A07A3
:100F200000D50127490305D5626F016821F04071A2
:100F3000114301602168090206D5D4F880200168B8
:100F400021F0805111430160DFF88491012E0ED011
:100F50002068B0F1007F0AD08FE05E4AD9F80030F7
:100F6000104023F4F8120243C9F8002039E7D9F8F9
:100F700000004E4620F08060C9F80000FFF7A6FD93
:100F8000804605E0FFF7A2FDA0EB080064287DD8AD
:100F900030680001F6D421784B487C30C90712D064
:100FA000616B81B9237A62680168D0F800C0920150
:100FB000C1F3014142EA0142CCF3036142EA01611B
:100FC00041EA0371016021680A0303D5E26BB2F5BF
:100FD000801F04D0C9021AD5216C594517D1636806
:100FE000016894F80CC002689B01C1F3014143EA17
:100FF0000141C2F3027241EA0C6141EA02710160EF
:101000002968626A21F01F01521E1143296021687C
:10101000C90110D5238A62680168D0F800C0920126
:10102000C1F3036142EA034242EA0162CCF3027176
:1010300042EA01710160216889010CD56168228A48
:10104000237B94F808C0890141EA024141EA036127
:1010500041EA0C7101603168B04641F08061316055
:10106000FFF734FD064604E0FFF730FD801B6428DF
:101070000CD8D8F800000001F6D56FB3D9F80000FD
:101080004E4620F08050C9F8000000E079E0FFF7FC
:101090001DFD074605E000BFFFF718FDC01B6428D3
:1010A0006FD83068C0438000F6D50748216880308B
:1010B0000A0301D5E26B1AB1C90225D5216C19BB0F
:1010C00063690168277E08E008380240007000402C
:1010D00000380240FFFCFF0F5AE00268C1F30141F3
:1010E0009B0143EA0143C2F3027143EA076242EA09
:1010F0000171016029686FF0FF03A26A21F4F851C1
:1011000003EB0222114329602168890212D5E16FA5
:1011100051450FD1238C6269016807689201C1F3C0
:10112000036142EA034242EA0162C7F3027142EA02
:10113000017101602178090716D561690268D0F84C
:1011400000C08B01277FC2F30362CCF3014143EA65
:10115000014141EA026141EA077101602868E16AE0
:1011600020F4403008432860306840F08050306000
:10117000FFF7ACFC044607E0FFF7A8FC001B64285F
:1011800002D90320BDE8F88F3068C0438000F3D453
:101190000020F7E72DE9F04705000F4663D0444EE5
:1011A000306800F00F00B84209D2306820F00F001C
:1011B00038433060306800F00F00B84253D12868DF
:1011C0003C4C810712D5400703D5206840F4E0501D
:1011D00020602878000703D5206840F46040206034
:1011E000A968206820F0F000084320602878C00734
:1011F0002AD0304968680839012810D009680228C7
:1012000010D0890700292EDA216821F0030101435B
:101210002160FFF75BFC804641F288390DE00968E8
:101220008903EFE78901EDE7FFF750FCA0EB080128
:10123000494502D90320BDE8F0876868216801F0BC
:101240000C01B1EB800FEFD1306800F00F00B84215
:101250000BD9306820F00F0038433060306800F060
:101260000F00B84201D00120E5E72878400705D5F6
:10127000E968206820F4E0500843206028780007DF
:1012800006D52869216821F4604141EAC000206048
:1012900000F056F82168084AC1F30311515CC840B8
:1012A000064908600020FFF72BFC0020C3E7000080
:1012B000003C02400838024020680008540000202A
:1012C0000D4A0F2330B503604FF4E0540B4B156803
:1012D00005F003054560156805F0F00585601568A3
:1012E00005F4E055C560126804EAD202026118688C
:1012F00000F00F00086030BD08380240003C02409A
:101300000449054809680068044AC1F38221515C18
:10131000C840704708380240540000203068000878
:101320000449054809680068044AC1F34231515C28
:10133000C840704708380240540000203068000858
:10134000154910B51548096811F00C0213D014495D
:10135000042A0FD0082A0ED10F4C241F22682368BC
:1013600002F03F025B0207D52068C0F38810A0FBA3
:10137000010106E0084610BD2168C1F38811A1FBF8
:1013800000010023FEF79EFF2168C1F30141491CC3
:101390004900B0FBF1F010BD083802400024F40011
:1013A00040787D012DE9F84F05004FF000076ED021
:1013B0002878DFF81C93A9F1040AC007AAF10404F5
:1013C0004CD0D9F800104846C1F38101012908D05A
:1013D0000068C0F3810002280AD1DAF80000400258
:1013E00006D52068800339D568680028DFD035E04D
:1013F0006868B0F5803F0BD010B1B0F5A02F11D0C8
:10140000206820F480302060206820F4802002E0F2
:10141000206840F480302060686890B1FFF756FB88
:1014200006460AE0206840F480202060F0E700BF14
:10143000FFF74CFB801B642872D820688003F7D527
:101440000CE0FFF743FB064605E000BFFFF73EFB5D
:10145000801B6428F0D820688003F7D428788007A0
:1014600042D5D9F80010484611F00C0F08D000689A
:10147000C0F3810002280BD1DAF80000400207D443
:101480002068800718D5E868012800D114E01CE125
:10149000E8680028206817D040F001002060FFF7BE
:1014A00015FB064605E000BFFFF710FB801B022876
:1014B000C2D820688007F7D52869216821F0F80193
:1014C00041EAC00020600FE020F001002060FFF73B
:1014D000FDFA064605E000BFFFF7F8FA801B022878
:1014E0001ED820688007F7D42878000729D57848C7
:1014F00069696C3000298046016812D041F0010111
:101500000160FFF7E3FA064605E000BFFFF7DEFAE9
:10151000801B022804D8D8F800008007F6D510E018
:1015200089E021F001010160FFF7D0FA064604E0EE
:10153000FFF7CCFA801B02287DD8D8F8000080077E
:10154000F6D4287840076BD5DFF8848108F1380895
:10155000D8F80000C0000BD4D8F8001041F080513A
:10156000C8F80010D8F80000012700F08050009063
:1015700058480168C90512D40168834641F4807156
:101580000160FFF7A3FA064605E000BFFFF79EFAE9
:10159000801B64284FD8DBF80000C005F6D54C4E00
:1015A000A868683601280AD008B1052811D030682B
:1015B00020F001003060306820F0040002E0306864
:1015C00040F001003060A868A0B1FFF77FFA8346C1
:1015D0000CE0306840F004003060F0E7FFF776FA86
:1015E000A0EB0B0141F28830814266D83068800759
:1015F000F4D50EE0FFF76AFA834607E0FFF766FAD4
:10160000A0EB0B0141F28830814256D83068800748
:10161000F4D42FB1D8F8001021F08051C8F8001090
:10162000A869C8B3D9F80010C1F3810102294CD0D0
:101630000228206800E040E020F08070206003D0A5
:10164000FFF744FA05463BE0FFF740FA064604E0A0
:10165000FFF73CFA801B02282FD820688001F7D4BE
:10166000D5E90962D5E907011B4B570895F82C20ED
:10167000084303EB074343EA8611084340EA02604C
:1016800040F00050CAF80000206840F080702060F0
:10169000FFF71CFA054606E015E000BFFFF716FA53
:1016A000401B022809D820688001F7D50BE000BF55
:1016B000FFF70CFA401B022802D90320BDE8F88F7F
:1016C00020688001F4D40020F8E70120F6E700004C
:1016D00008380240007000400000FFFF10B5FEF720
:1016E0007FFE10BDFEB504460D46416C032084F814
:1016F0003400032920D0B5F5805F1DD0B5F5006F0B
:1017000005D045B1A06B40F00060A06309E0204621
:1017100001F091FB02E0204601F066FBA16B014362
:10172000A163A06B012658B1216840F2FF50886385
:1017300084F834600120FEBDA06B40F08050E4E7E7
:10174000211DD4E905070EC9CDE900500297206894
:1017500001F02CF984F834600020FEBD7047F0B52C
:10176000426E120E93090B70C2F3830402F003025F
:101770004C708A70426E120CCA70B0F86420120A63
:101780000A7190F864204A714FF6FF73826E120E50
:1017900003EA0212CA80CB88826EC2F307421409A0
:1017A0002343CB8002F00F020A72B0F868200025B4
:1017B000C2F30722D3094B72C2F38014C2F340165E
:1017C000C2F300178C72CE720F734D730123446CF9
:1017D0004FF400766CB1012C46D0026840F2FF5104
:1017E0009163816B41F08051816380F83430012036
:1017F000F0BD9207120D0A610C6990F8682044EA66
:1018000082020A610C69C26E120E9709C2F3C20C01
:101810003C430C6102F0070281F814C04A75C26EA5
:10182000C2F30742940757098F75640FC2F382020F
:10183000CA750C760A7EB0F86C40C4F3072442EAFD
:10184000D4120A760A69521C42650F7EBF1CBA4048
:1018500042650F7A03FA07F787654FEA572C02FBB8
:101860000CF2C0E917261CE090F868209206920A54
:101870000A610C69C26E120E44EA02220A610C6906
:10188000C26EC2F3074214430C610A69B0F86C409F
:10189000521C4FEA82224265C4F30724C0E9166253
:1018A0000666C4F380124FEA84644A764FEA5464B1
:1018B0008C7690F86C208C7E4FEAD21602F07F0274
:1018C00044EA06048C76CA7650F8702F4FEA12620A
:1018D0004FEAD2140C77C2F34116C2F382074FEAE3
:1018E00082724E778F774FEA1272CA77CC7F026886
:1018F000C2F3074244EA9214CC77C2F3401602F0D6
:10190000010281F8206081F8215081F822200288AC
:10191000C2F307224FEAD21481F82340C2F38015A4
:10192000C2F34016C2F30017C2F3810C02F00302A7
:1019300081F8245081F8256081F8267081F827C04D
:1019400081F8282000784FEA500081F8290081F8BA
:101950002A304FF00000F0BD426C0A60826C4A6091
:10196000C26C8A60026DCA60426D0A61826D4A6112
:10197000C26D8A61006EC8610020704770B5B0F812
:101980005010002504460068090400F05BFE18B101
:10199000A16B0143A16304E02068002101F000F87D
:1019A0000546C5F3432070BD70B5044600680125A7
:1019B00040F2FF56416BC90548D529028163206872
:1019C000C16B21F49D71C163206B0007206B20D592
:1019D000800702D4206B800609D5206800F064FEE1
:1019E00028B1A16B0143A1632046FFF7B7FE206831
:1019F000866384F83450206BC00702D1206B8007C7
:101A000003D5204600F01AFA70BD204600F01AFAFD
:101A100070BD0006FCD5206B800609D5206800F05B
:101A200043FE28B1A16B0143A1632046FFF796FE58
:101A3000206BC007ECD1206B8007E9D42068C16A15
:101A400021F00801C16284F83450DEE7416B49049B
:101A500010D54FF480418163266A0025206806EB8B
:101A6000850100F0CCFF6D1C082DF7D3206A2030D3
:101A7000206270BD416B090410D54FF400418163B1
:101A8000A66A0025206800F0A6FF46F825006D1C18
:101A9000082DF7D3A06A2030A06270BD416B11F011
:101AA0003A0FFAD0416B890703D5A16B41F00201CF
:101AB000A163416B090703D5A16B41F00801A16344
:101AC000416B890603D5A16B41F02001A163416BF5
:101AD000C90603D5A16B41F01001A163866320689C
:101AE000C16B21F49D71C163206B000623D5206C6E
:101AF00058B115490165206CFEF756FD0028CCD081
:101B0000206CBDE8704001F01AB8E06B58B10F4985
:101B10000165E06BFEF748FD0028BED0E06BBDE834
:101B2000704000F0E1BF0020A06384F834502046EC
:101B3000FFF7D4FD70BD206B0007FBD584F834504F
:101B40002046FFF70BFE70BD3F2B0008E92A000876
:101B500070B5040004D094F83400002510B105E0FD
:101B6000012070BD2046257700F03CF8032084F862
:101B70003400204600F007F80120A563256384F8AF
:101B80003400002070BD3EB504467620002100914F
:101B90000B460A46CDE90110206800F007FF2068D7
:101BA000416821F480714160206800F010FF2068D6
:101BB000416841F4807141600220FEF789FE2046B1
:101BC00001F0BFF84FF0010520B9204601F046F8BA
:101BD000002805D084F83450A16B0143A163012093
:101BE0003EBD00002DE9F04F87B0814614216846C4
:101BF000FEF7B2FB4D49D9F8000088427DD14C4830
:101C0000016841F4006101600068494A00F4006025
:101C10000590143A10461146126842F00402026020
:101C20000868434A00F004000590143A1046114633
:101C3000126842F0080202600868032502224FF091
:101C4000000A00F0080003954FF4F8518DE80604EF
:101C50000C246946CDE904403648FEF74BFE0222CB
:101C6000CDF808A0042734486946CDE90072CDE9D3
:101C70000354FEF73FFE314C2026DFF8C4804FF4BA
:101C8000001BB0054FF4000C4114C4F808A0C4E9CF
:101C900000804313C4E903A1C4F830B0C2136762E3
:101CA0002046C4E9076AC4E90523C4E90A5CFEF7D3
:101CB0005FFD08B1FEF753FC224D4FF00062C9F8FA
:101CC0003C404FF0400C1E4F5314C4F83890D613CC
:101CD00048372F606A6005F10C08C5F808C0511339
:101CE0005046A96188E8490020240427C5E9074037
:101CF000032228464FF4000C00E014E0C5E9097205
:101D0000C5E90BCBFEF734FD08B1FEF728FCC9F896
:101D1000405000220521C5F838903120FEF754FFCD
:101D20003120FEF743FF07B0BDE8F08F002C0140E3
:101D30004438024000080240000C02402C020020FF
:101D4000586402408C0200202DE9F04387B01F4602
:101D50001546044639B194F83400012807D0022012
:101D600007B0BDE8F083A06B40F0006008E0E26DD2
:101D70000020EB19A063934204D9A06B40F00070DF
:101D8000A06355E00322814684F834202268D062A3
:101D90002268D36B43F49573D363E36B4FEA472810
:101DA000244ADA63E36B244ADA644FEA9803E26B6D
:101DB00010650A462068E66B00F180013046FEF7A8
:101DC00049FD2068C16A41F00801C162606C0128C8
:101DD00000D06D02694601260596B01ECDE90008C7
:101DE00002A89022022380E80C02206800F0A8FCE0
:101DF0002068710200F00CFB40F2FF5880B9012FFF
:101E000006D9822020632068294600F08DFB05E07A
:101E1000812020632068294600F09FFB00289FD086
:101E20002268C2F83880A16B0143A16384F8346052
:101E3000012095E7AB2A00084D2A000810B5FEF7EF
:101E40000BFB10BD10B5FEF71FFB10BD2DE9F04FC9
:101E50005FEA010B1E4687B01546044607D094F88A
:101E60003400012807D0022007B0BDE8F08FA06B36
:101E700040F0006008E0E16D0020AA19A0638A42EA
:101E800004D9A06B40F00070A0633AE003218046C3
:101E900084F834102168C8622168CA6B42F01A02C3
:101EA000CA63226C2549D163226C2549D164216C17
:101EB0000865606C012800D06D0220684FF4007145
:101EC00000F0A6FA4FF0010740F2FF5988B9012E41
:101ED0004FF0900A06D9A02020632068294600F020
:101EE000FDFB05E0C4F830A02946206800F00FFC97
:101EF00048B12268C2F83890A16B0143A16384F80D
:101F000034700120B0E72068C16A41F00801C16265
:101F100022687502206C5946AB088032FEF79AFCA5
:101F2000CDE904874FF0FF326946CDE902A8CDE93B
:101F30000025206800F004FC002095E7312B000804
:101F40004D2A000870477047704710B5040003D051
:101F500094F83D0010B107E0012010BD002084F886
:101F60003C00204600F00CF8022084F83D00206878
:101F7000211D01F0F3F9012084F83D00002010BD7F
:101F8000704700000168094ACB6843F00103CB6049
:101F9000016888681040062806D0B0F5803F03D05D
:101FA000086840F001000860002070470700010049
:101FB000704770B50446006800250169C943890768
:101FC00015D4C168C943890711D4EA1E02610121F1
:101FD0002177206880698007204602D0FFF7E8FF5C
:101FE00004E000F0A7F8204600F0A5F82577206867
:101FF0000169C943490717D4C168C943490713D4C4
:1020000002216FF00402026121772068806910F4D8
:10201000407F204602D0FFF7CBFF04E000F08AF8B3
:10202000204600F088F8257720680169C943090730
:1020300016D4C168C943090712D404216FF00802FD
:10204000026121772068C0698007204602D0FFF72F
:10205000AFFF04E000F06EF8204600F06CF8257742
:1020600020680169C943C90617D4C168C943C906B4
:1020700013D408216FF01002026121772068C06933
:1020800010F4407F204602D0FFF792FF04E000F0FA
:1020900051F8204600F04FF8257720680169C943C0
:1020A000C90708D1C168C943C90704D1891E0161A4
:1020B000204600F041F820680169C943090609D4A7
:1020C000C168C943090605D46FF08001016120464B
:1020D000FFF739FF20680169C943C90509D4C16800
:1020E000C943090605D46FF4807101612046FFF7EA
:1020F00029FF20680169C943490609D4C168C94359
:10210000490605D46FF040010161204600F01EF839
:1021100020680169C94389060BD4C168C94389068F
:1021200007D46FF0200101612046BDE87040FFF741
:102130000BBF70BD7047704700680349884201D1EA
:10214000FEF7CABC7047000000100040704710B591
:10215000040002D0606F10B107E0012010BD002024
:1021600084F87000204600F025F82420606720687D
:10217000016821F001010160204601F0D7F9012832
:10218000ECD0606A10B1204601F04EF92068416839
:1021900021F4904141602068816821F02A0181602A
:1021A0002068016841F0010101602046BDE810404F
:1021B00001F09EB9F0B587B0044614216846FEF7D9
:1021C000CBF81949206888422CD11848016841F0A1
:1021D00010010160006800F01000059013481438E9
:1021E000016841F002010160016801F002010591FE
:1021F000016841F001010160006802240025694680
:1022000000F0010005900326072780208DE8F100EB
:102210000748FEF76FFB200269468DE8F10005488C
:10222000FEF768FB07B0F0BD0010014044380240E3
:1022300000040240000002402DE9F8430446406FCC
:102240001F4616460D4620284FD1CDB1C6B194F891
:102250007000012849D0012284F8702021214FF01C
:102260000008C4F87C806167FEF730FC8146A068F6
:10227000A4F85060A4F85260B0F5805F03D004E089
:102280000120BDE8F883206910B12E46002510E03A
:1022900000260EE08021204601F072FAB8B9C6B1DE
:1022A00016F8010B21688862B4F85200401EA4F8A9
:1022B0005200B4F852004B464FF00002009700283D
:1022C000E8D14FF04001204601F05AFA38B103201E
:1022D000D7E735F8020B2168C0F30800E3E72021B7
:1022E0006167002084F87080CBE70220C9E7FEE731
:1022F0000449054810B5FEF733F90249491E087034
:1023000010BD000041000020FC670008154808B51A
:10231000016841F004010160016801F004010091CD
:10232000016841F002010160016801F002010091C1
:10233000016841F008010160016801F008010091A5
:10234000016841F001010160016801F001010091A3
:10235000016841F080010160006800F08000009099
:1023600008BD0000303802400A48002130B4084C53
:102370000C224FF4E1330460C0E90131C160C0E9CF
:1023800004128161C1610162416230BCFFF7DFBEAE
:102390000010014048010020FEE770470148FFF7A8
:1023A00003BB0000C400002030B585B004463720D0
:1023B00040220DF1080CCDE90010002369461501FB
:1023C00020468CE82C0000F009FB372141F28832CE
:1023D000204600F0C9F905B030BD000030B50B4A09
:1023E00085B004462920114340220DF1080CCDE9A7
:1023F000001000236946150120468CE82C0000F0EF
:10240000EDFA204600F066FA05B030BD00001080FD
:1024100030B585B0044610200DF1080C8501CDE9DA
:10242000001040226946002320468CE82C0000F072
:10243000D5FA102141F28832204600F095F905B016
:1024400030BD30B585B00446062040220DF1080CA1
:10245000CDE9001000236946150120468CE82C00C8
:1024600000F0BCFA062141F28832204600F07CF9E7
:1024700005B030BD30B585B00546002469464FF43F
:102480008060009401940294CDE90340284600F056
:10249000A5FA0B4A4FF4FA5041F288311268B2FBA8
:1024A000F0F04843401E03D24FF0004005B030BD6D
:1024B000696B0906F6D540F2FF512046A963F5E79E
:1024C0005400002070B50821044685B04FF4D57043
:1024D0004026CA018DE8430000256946CDE9035234
:1024E000204600F07BFA0F4A4FF4FA5041F288314F
:1024F0001268B2FBF0F04843401E02D24FF0004594
:102500000CE0616B11F0450FF6D0606B400701D510
:10251000042502E0606B400600D5A66305B028469E
:1025200070BD00005400002030B585B00446122074
:1025300040220DF1080CCDE9001000236946150179
:1025400020468CE82C0000F049FA122141F2883232
:10255000204600F009F905B030BD30B585B004461D
:10256000112040220DF1080CCDE90010002369462E
:10257000150120468CE82C0000F030FA112141F2C0
:102580008832204600F0F0F805B030BD30B585B097
:10259000044640210DF1040C0720009200230D0198
:1025A0008CE82B006946204600F018FA072141F21A
:1025B0008832204600F0D8F805B030BD10B586B09E
:1025C000044600210220C02243020493CDE90010FA
:1025D000CDE902216946204600F000FA204600F0CD
:1025E00051F906B010BD30B585B0044609200DF193
:1025F000080CC022CDE90010002369464FF4806525
:1026000020468CE82C0000F0E9F9204600F03AF969
:1026100005B030BD10B586B00446002133204022FD
:10262000CDE90221CDE9001013016946204604934B
:1026300000F0D4F9332141F28832204600F094F8BA
:1026400006B010BD30B585B004460D2040220DF116
:10265000080CCDE9001000236946150120468CE8DE
:102660002C0000F0BBF90D2141F28832204600F029
:102670007BF805B030BD30B585B00C46002105466D
:1026800003204022CDE90221CDE900101301694663
:102690002846049300F0A2F903212246284600F0C0
:1026A00039F905B030BD000010B586B004460021F0
:1026B0000C204022CDE90221CDE90010130169462A
:1026C0002046049300F08AF9034A0C21204600F0CA
:1026D0004BF806B010BD000000E1F50530B585B03F
:1026E0000446192040220DF1080CCDE9001000230A
:1026F0006946150120468CE82C0000F06FF919217D
:1027000041F28832204600F02FF805B030BD30B5D8
:1027100085B00446182040220DF1080CCDE90010C8
:1027200000236946150120468CE82C0000F056F97C
:10273000182141F28832204600F016F805B030BD6D
:1027400070B50A6842624A688262C46AD1E90225A9
:10275000D1E9043624F0F7012A4333431A431143E5
:10276000C162002070BD000010B5444C4FF4FA5314
:102770002468B4FBF3F353435B1E02D24FF00040D6
:1027800010BD426B12F0450FF6D0426B520703D5D5
:1027900004218163084610BD426BD20702D001219B
:1027A000816303E00269D2B28A4201D0012010BDE8
:1027B00040F2FF518163002100F0F2F830490842F5
:1027C00001D1002010BD002802DA4FF0007010BDCA
:1027D000410001D5402010BD810001D5802010BDF1
:1027E000C10002D54FF4807010BD010102D54FF435
:1027F000007010BD410102D54FF4806010BDC101D1
:1028000002D54FF4006010BD010202D54FF4805094
:1028100010BD410202D54FF4005010BD810202D517
:102820004FF4804010BDC10202D54FF4004010BDEE
:10283000410302D54FF4003010BD810302D54FF49F
:10284000802010BDC10302D54FF4002010BD01044B
:1028500002D54FF4801010BD410402D54FF4001092
:1028600010BD810402D54FF4800010BD000702D5D1
:102870004FF4000010BD4FF4803010BD5400002014
:1028800008E0FFFD124B4FF4FA5141F288321B6809
:10289000B3FBF1F15143491E02D24FF000407047A3
:1028A000426B12F0450FF6D0416B490703D5042166
:1028B000816308467047416BC90703D001218163DA
:1028C0000846704740F2FF518163002070470000C6
:1028D000540000200E4B4FF4FA5141F288321B682D
:1028E000B3FBF1F15143491E02D24FF00040704753
:1028F000426B12F0450FF6D0416B490703D5042116
:1029000081630846704740F2FF51816300207047A1
:102910005400002030B51F4D4FF4FA5341F2883473
:102920002D68B5FBF3F363435B1E02D24FF000400A
:1029300030BD446B14F0450FF6D0436B5B0703D5F5
:1029400004218163084630BD436BDB0702D00121BF
:10295000816303E00369DBB28B4201D0012030BD0B
:1029600040F2FF518163002100F01AF810F4604F2B
:1029700004D0410406D54FF4005030BD000C108047
:10298000002030BD000402D54FF4805030BD4FF41C
:10299000803030BD54000020006800F00300704714
:1029A000084408B514300090006808BD70B51143A4
:1029B0004268049EDDE90554334347F6FF66194338
:1029C0002943B24321430A434260002070BD0321E2
:1029D000016000207047D0F88000704770B50A6829
:1029E0008260C468D1E90125D1E90336210B2A436D
:1029F000334309031A431143C160002070BD0968C5
:102A0000C0F880100020704710B5064C01202070DF
:102A1000FDF7EEFC18B9207820F001002070207836
:102A200010BD00003800002070B5054602F00DF919
:102A3000044603E0FDF7DCFC002806D002F005F9AF
:102A4000001BA842F6D34FF0FF3070BD10B5846B69
:102A5000FDF7BCFD022827D0E06B406D012803D0B4
:102A6000206C406D01281CD1216840F2FF50886322
:102A70002068C16B21F49D71C163A06B40F0804060
:102A8000A0632046FEF77AFF062801D0052805D16D
:102A90002068FFF709FEA16B0843A063012084F8BA
:102AA00034002046FEF75AFE10BD10B5846B206B33
:102AB000822809D12068FFF7F7FD28B1A16B0143F7
:102AC000A1632046FEF74AFE2068012140F2FF5232
:102AD000C36A23F00803C3622068826384F8341059
:102AE0002046FFF7ABF910BD70B5846B0025E06B95
:102AF00000B1E563206C002816D12046FEF73EFFAA
:102B00000121A563062884F8341001D005280BD1D3
:102B10002068FFF7C9FDA16B0843A063A06B0028E4
:102B2000204602D0FEF7DAFD70BDFEF717FE70BD3D
:102B3000806B0068C16B41F48071C163704770B5F0
:102B4000846B0025206C00B12564E06B002816D151
:102B50002046FEF713FF0121A563062884F83410F0
:102B600001D005280BD12068FFF79EFDA16B08431B
:102B7000A063A06B0028204602D0FEF7AFFD70BD19
:102B8000FEF7ECFD70BD2DE9F04F89B00E4604460E
:102B9000FDF79CFF002700970197082183462068D6
:102BA0003D46FFF735FC002835D1B4F850102068B9
:102BB0000904FFF7F9FB00282DD14FF008084FF06A
:102BC00002094FF0010C421E3023CDE90228CDE965
:102BD0000439CDE9067C206802A9FFF7B1FD206821
:102BE000FFF718FD002816D1EA4640F22A47206870
:102BF000416B394212D1416B890204D5FFF7EBFEDC
:102C00004AF825006D1CFDF761FFA0EB0B00401C8E
:102C1000EDD14FF0004009B0BDE8F08F416B0907DE
:102C200003D5C0F838800820F5E7416B890703D544
:102C3000C0F838900220EEE7416B890603D52021C9
:102C400081630846E7E740F2FF518163009800BACC
:102C50007060019800BA30600020DCE710B590B0D9
:102C600004460120ADF838002068FFF795FE0028E3
:102C700064D0606C032842D02068FFF79FFC0028D6
:102C80005AD120680021FFF78BFE6067042120687D
:102C9000FFF786FEA06708212068FFF781FEE06746
:102CA0000C212068FFF77CFE616CC4F880000329CA
:102CB00025D020680EA9FFF7DEFC00283CD1606C0F
:102CC00003281CD0BDF83810216520680904FFF7DF
:102CD0008AFC002830D120680021FFF761FE606681
:102CE00004212068FFF75CFEA06608212068FFF73A
:102CF00057FEE0660C212068FFF752FE2067042192
:102D00002068FFF74DFE000DE06403A92046FEF7A2
:102D100026FDB4F85000002302042068FFF736FCBB
:102D2000002809D104F1100007C88DE8070094E8D5
:102D30000F00FFF73BFE002010B010BD4FF0806089
:102D4000FAE72DE9F8430025044600950068FFF7EF
:102D500091FB00281BD12068FFF7B4FB4FF080786F
:102D60004FF6FF76E0B14FF08057A5640098B0426F
:102D700000F1010000901BD020680021FFF714FB38
:102D800020B920680021FFF729FB10B13846BDE8C3
:102D9000F88320680021FFF703FEC00FE6D020E093
:102DA0000127A7640098B04200F10100009001D112
:102DB0004046ECE720680021FFF7F6FA0028E6D14C
:102DC00020684FF08041FFF709FB0028DFD1206821
:102DD0000021FFF7E5FDC10FE4D0400001D5676495
:102DE00000E065640020D2E71CB504460020009096
:102DF000002101902068FFF7D3FD800102D54FF438
:102E000000601CBD69462046FFF7BDFE0028F8D1D2
:102E10000198C0030CD5B4F8501020680904FFF7DE
:102E2000C3FA0028EDD120680021FFF70AFB1CBD82
:102E30004FF080601CBD1CB50446002000900021AE
:102E400001902068FFF7ACFD800102D54FF40060CF
:102E50001CBD69462046FFF796FE0028F8D1019870
:102E600040030CD5B4F8501020680904FFF79CFA11
:102E70000028EDD120680221FFF7E3FA1CBD4FF0D6
:102E800080601CBD7CB50F4C05460120207001F010
:102E9000CEFEA8B1FDF7B8FA18B92846FFF7B4FD81
:102EA0002070207801280BD0606848B90648D0E926
:102EB0000010CDE900100021684601F0D2FE6060EC
:102EC00020787CBD3800002010680008144810B538
:102ED00088B014460078C00702D0032008B010BDA7
:102EE00039B1012907D002290BD0032910D00420C1
:102EF000F4E70020F2E76846FDF774FA069900202F
:102F00000CE06846FDF76EFA079900202180E5E79E
:102F10006846FDF767FA07990020490A2160DDE756
:102F2000380000202DE9FE4F47F230559846012722
:102F3000144689462846FFF777FD00283BDB1F4EE5
:102F40005FEA897003D0AB46B24600252DE04246C9
:102F500021464846FDF772FA68BB71682A46684602
:102F600001F084FEDDE90010102924D1012821D0D0
:102F700021E0134801222146641CFDF75FFA060098
:102F800015D1DAF804105A46684601F06FFEDDE903
:102F90000010102908D1012806D1420208494846EC
:102FA000FDF7C1F909F500796D1C4545E1D34545AB
:102FB00001D106B900273846BDE8FE8F3800002051
:102FC000EC020020FFF720BD2DE9FE4F47F23057FD
:102FD00098460126144689463846FFF725FD002805
:102FE00048DB264D5FEA897003D0BB46AA46002520
:102FF0003AE0424621464846FDF738FAD0BB6968B8
:103000003C463A46684601F031FEDDE900101029E1
:1030100030D102282ED101F018FE044403E000BF95
:10302000FDF7E6F928B301F010FEA042F8D321E045
:10303000134801222146641CFDF718FA070015D138
:10304000DAF804105A46684601F010FEDDE9001077
:10305000102908D1022806D1020209494846FDF785
:1030600062F909F500796D1C4545E1D3454501D16B
:1030700007B900263046BDE8FE8F0000380000206A
:10308000EC020020FFF734F92B4900222B4800F016
:1030900033FF2E480A222AA100F06CFF2C4C18B1F5
:1030A0002CA000F09FFB21E031A000F09BFB284802
:1030B0001030FDF75CF9264B02462448083303F133
:1030C000080101F08CF92070A16801B118B131A09C
:1030D00000F088FB07E035A000F084FB1C493AA013
:1030E000103100F07FFB194800F0EEFE1748012276
:1030F00013A100F03FFF39486421FDF72DF9144B6F
:103100006422364911480C3301F046F82070E1681A
:1031100001B118B132A000F065FB06E036A000F066
:1031200061FB2E493BA000F05DFB084800F0CCFE9F
:10313000012001F075FDFBE741000020EC040020B8
:10314000463746494C45312E54585400241500202A
:10315000000000204661696C656420746F206F7008
:10316000656E2057726974652066696C650D0A008A
:103170004F70656E65642057726974652066696C6E
:1031800065207375636365737366756C6C790D0A7E
:10319000000000004661696C656420746F207772DE
:1031A0006974652066696C65210D0A0046696C6565
:1031B000207772697474656E2073756363657373C9
:1031C00066756C6C790D0A00577269746520436FDF
:1031D0006E74656E743A2025730D0A00C8010020D4
:1031E0004661696C656420746F2072656164206655
:1031F000696C65210D0A000046696C652072656185
:1032000064207375636365737366756C6C790D0AFE
:103210000000000046696C6520636F6E74656E7413
:103220003A2025730D0A000072B6502010B580F3C5
:103230001188BFF34F8FBFF36F8F62B603F02EF983
:1032400018B104494FF080500860002080F31188C5
:1032500010BD000004ED00E070B5B4B0302121A82D
:10326000FDF77AF814212DA8FDF776F88421684639
:10327000FDF772F81E48016841F080510160006856
:1032800000F0805032901B48016841F440410160D9
:1032900000680225192300F44040329001200926DD
:1032A000820501044FF4D874CDE92752CDE92101FC
:1032B00029A921A881E87800FEF774F8FDF7B6FC8B
:1032C000EA024FF4A05100242F94CDE930120F20D0
:1032D000CDE92D0507212DA8FDF75CFF06481194C7
:1032E0001F94209400906846FDF7D6FC34B070BD62
:1032F00040380240007000404000A000104A30B545
:103300001048146800210F4B44F470041460083313
:1033100005680D4A0D4C45F001050560196003680C
:10332000051D1340074A03600C322C600568E30555
:10333000034C25F480250560803C1160236030BD7E
:1033400088ED00E000380240FFFFF6FE1030002458
:103350000148FEF72EBE000054250020F0B5274B93
:103360004FF0804E264D02689842264E264F274C3D
:1033700009D0704507D0A84205D0B04203D0B8426A
:1033800001D0A04205D1D1F804C022F070024CEA6D
:10339000020298421BD0704519D0A84217D0B04203
:1033A00015D0B84213D0A04211D0194DA8420ED06A
:1033B000184DA8420BD0184DA84208D0174DA8426E
:1033C00005D0174DA84202D0164DA84203D1CD68B2
:1033D00022F440722A434D6922F080022A4302609F
:1033E00098428A68C2620A68826201D0A04201D112
:1033F0000969016301214161F0BD00000000014045
:103400000004004000080040000C0040000401409F
:1034100000400140004401400048014000180040C5
:10342000001C00400020004090F82410C90706D07E
:103430000168836A4A6822F400321A434A6090F8AD
:103440002410890706D50168C36A4A6822F48032CD
:103450001A434A6090F82410490706D50168036BA7
:103460004A6822F480221A434A6090F8241009071F
:1034700006D50168436B4A6822F400421A434A6049
:1034800090F82410C90606D50168836B8A6822F477
:1034900080521A438A6090F82410890606D5016884
:1034A000C36B8A6822F400521A438A6090F8241091
:1034B000490611D50168036C4A6822F480121A4348
:1034C0004A60016CB1F5801F06D10168436C4A68FF
:1034D00022F4C0021A434A6090F82410090606D567
:1034E0000168826C486820F40020104348607047EF
:1034F00038B500250446C567FDF7E8FA034620689D
:10350000006800070BD56FF07E4000900022204637
:103510004FF4001100F034F908B1032038BD202029
:10352000606784F87050A067002038BD2DE9F04135
:1035300004468068DFF818C2864F2368D4E9045235
:10354000E16928431E6800250A438349104306EABF
:103550000C0606431E604FF400422068E66843688C
:1035600023F44053334343602368A669206AD3F8A9
:1035700008C030432CF4306606439E602068B84291
:103580000AD1086810F0030052D001287BD002282D
:103590007AD003286ED186E0704B98420AD1086831
:1035A00010F00C0079D004287BD0082877D00C28A4
:1035B00060D178E06A4B98420AD1086810F0300078
:1035C0006BD010286DD0202869D0302852D16AE005
:1035D000644B98420AD1086810F0C0005DD04028C2
:1035E0005FD080285BD0C02844D15CE05E4B98421D
:1035F0000DD1086810F440704FD0B0F5807F50D0E6
:10360000B0F5007F4BD0B0F5407F33D14BE0574B46
:1036100098420FD1086810F4406009D0B0F5806F6F
:103620003FD0B0F5006F3AD0B0F5406F22D13AE00C
:10363000012120E04E4B98420DD1086810F4405013
:103640002BD0B0F5805F2CD0B0F5005F27D0B0F55F
:10365000405F0FD127E0474B98420BD1086810F428
:1036600040401AD0B0F5804F1BD0904217D0B0F533
:10367000404F18D01021E0694FF6EF76904238D1D4
:1036800009295DD202E00CE009E006E0DFE801F084
:103690000D1027582A5858582D000021EBE7022119
:1036A000E9E70421E7E70821E5E7FDF729FE01E066
:1036B000FDF736FE0146D4F80400490001EB500145
:1036C000B1FBF0F080B2A0F11001B14238D84FF652
:1036D000F0732168C0F342021840104324E02649E9
:1036E0006068EBE7FDF72CFEE4E760684FF480319B
:1036F000E4E7092924D2DFE801F0050819231C2397
:1037000023231F00FDF7FCFD01E0FDF709FE014644
:10371000D4F8040001EB5001B1FBF0F080B2A0F14D
:103720001001B1420CD82168C8600AE013496068F2
:10373000F0E7FDF705FEEAE7606802EB5001EBE712
:1037400001250020206660662846BDE8F081000063
:10375000F369FFEF00100140903802400044004040
:1037600000480040004C0040005000400014014060
:1037700000780040007C00400048E8010024F4008C
:103780002DE9F041984617460E460446069D08E08E
:10379000681C06D0FDF79AF9A0EB0800A8420BD8E8
:1037A00055B12068C06936EA000017D00020B84241
:1037B000EED00020BDE8F0812168202000220B68B7
:1037C00023F4D0730B6021688B6823F001038B60B6
:1037D0006067A067032084F87020EBE70120E6E72C
:1037E000FEE700000FB4054B10B503A9044A029888
:1037F00000F028F810BC5DF814FB00000D4900082B
:10380000C0000020090700284FEA116104DB00F125
:10381000E02080F80014704700F00F0000F1E02075
:1038200080F8141D704702E008C8121F08C1002A62
:10383000FAD170477047002001E001C1121F002A31
:10384000FBD170472DE9F84F9946924688460546C8
:10385000002706E025280AD051464A4690476D1CAD
:103860007F1C28780028F5D13846BDE8F88F002362
:1038700015F8011F18462E2915D115F8011F04232C
:103880002A290DD06FF02F022978A1F13004092CDC
:1038900009D800EB800002EB400008446D1CF3E700
:1038A00058F8040B6D1C2A78002ADDD0632A07D053
:1038B000732A0FD0104651464A4690477F1C2AE093
:1038C00018F8042B8DF8002000218DF801106E46A9
:1038D000012103E058F8046B4FF0FF315A074FF015
:1038E000000401D409E0641C84420BDA8C42FADB48
:1038F000325D002AF7D105E0641C8C42FCDB305DB0
:103900000028F9D1274404E016F8010B51464A4635
:103910009047641EF8D26D1CA3E7000010B5044662
:103920000022501EE2706063204601F060F908B189
:10393000042010BD04F2362001F0EEF8A0F52A4173
:10394000553901D0032010BD94F83800E92805D07E
:10395000EB2814D194F83A00902810D104F16E00AD
:1039600001F0CFF80749B1EB002F06D004F18A002F
:1039700001F0C7F80449884201D1002010BD02209F
:1039800010BD00000046415446415433F0B5154D7A
:103990000022134605EB021426685EB10768BE429A
:1039A00009D166688768BE4205D1A4684669B442F9
:1039B00004D000E00123521C022AEBD3022A01D0DA
:1039C00069B904E04BB9022907D01220F0BD05EB1C
:1039D00002108089B0F5807F01D00020F0BD10205A
:1039E000F0BD00009425002030B5064B0024214690
:1039F00003EB01121568854200D11460491C0229AD
:103A0000F6D330BD942500200268C06A938952899C
:103A10005343B1FBF3F1001D04C81AB1914203D323
:103A2000891AF8E700207047006808447047C269A7
:103A3000891E921E8A4201D800207047026B40897D
:103A400001FB002070472DE9F04105680F0080461A
:103A500006D000F067FF022809D20120BDE8F081FE
:103A60006E6916B1E869B04207D8012605E0411C2D
:103A7000F4D0E9698142F1D83E463446E869641CD5
:103A8000A04203D8022E4FF002040AD3214640463A
:103A900000F048FF38B10128E0D0411CDED0B4422C
:103AA000ECD10020DAE74FF0FF36214632462846B7
:103AB00001F00FFC30B957B122463946284601F0D3
:103AC00008FC20B101280FD001242046C6E7D5E923
:103AD00006016C61891E884201D8401EA8612879C0
:103AE00040F001002871F0E73446EEE72DE9F0419F
:103AF00024300D680B220E462021044601F070F898
:103B000000204FF0080C01462A5C401C202A13D9E3
:103B10002F2A0CD05C2A0AD02E2A01D0614516D358
:103B2000BCF10B0F20D02E2A1ED10CE0401C2B5CC8
:103B30002F2BFBD05C2BF9D028443060A1B120782A
:103B4000E5281DD01EE008214FF00B0CDCE7802A91
:103B500003D3104B1A4412F8802C0FA300E05B1C17
:103B60001F7827B19742FAD10620BDE8F081A2F173
:103B70006103192B01D8203AD2B26254491CC3E721
:103B800005202070202A01D8042000E00020E072E7
:103B90000020EAE738680008222A2B2C3A3B3C3DFB
:103BA0003E3F5B5D7C7F0000401E022812D20A4926
:103BB00001EB00118889B0F5807F05D008B1401E67
:103BC00080B2888110B103E00020FAE7002008608D
:103BD0000020704702207047942500202DE9F04115
:103BE00005680021044600F0E1F8002827D1E169CA
:103BF000284600F0FCFF020020D1206A0178A1B124
:103C0000C17A01F03F01A171C17A090710D40B23D9
:103C100004F1240110F8016B5B1E11F8017BA6EB87
:103C2000070604D0002EF5D002E0042206E02EB1F3
:103C30000021204600F006F80200D8D01046BDE86A
:103C4000F08100002DE9F04705464769C0698946C3
:103C500020372C6810B1B7F5001F02D30420BDE84F
:103C6000F087A189B7FBF1F201FB127100295FD146
:103C7000A969401C4FF00008E86119B3A089628966
:103C8000B7FBF0F0521E104252D1284600F04AFE17
:103C9000012806461FD9701C36D0E069B04241D8D1
:103CA000B9F1000F12D0A9692846FFF7CCFE060033
:103CB0000FD0012E0FD0701C26D0204601F0D4FC6E
:103CC00010BB0AE02089B0EB571F31D8C5F81C8023
:103CD000C4E70720C3E70220C1E7A289002104F15D
:103CE000380000F07DFF4FF0000831462046FFF716
:103CF0009EFE4FF0010960630DE000BF204684F88E
:103D0000039001F0B1FC08B10120A8E7616B08F154
:103D10000108491C616360894045EFD8616BA1EBE4
:103D20000800606331462046AE61FFF780FEE8611F
:103D30006F61A089B7FBF0F100FB117020443830AF
:103D4000286200208BE770B506680021044600F069
:103D50002DF80DE0E169304600F049FF50B9206AC6
:103D60000078E52809D040B101212046FFF76AFF1D
:103D70000028EFD0042807D007E0E169304600F0C2
:103D800036FF050003D00FE0072005460CE0206A4F
:103D90002022002100F024FF206A0B2204F12401DC
:103DA00000F015FF0120F070284670BD2DE9F041AC
:103DB0000468B1F5001F0F4606463CD2F8063AD11A
:103DC000B568776125B92078032806D3E56A25B15F
:103DD0006089A18900FB01F812E02089B0EB571F30
:103DE00029D9E06A12E0304600F09CFD0546401CEF
:103DF0001FD0022D1FD3E069A8421CD9A7EB0807EA
:103E000029464745EFD22046FFF711FEC6E9065086
:103E100088B1A189B7FBF1F10844F061A089B7FB33
:103E2000F0F100FB11702044383030620020BDE812
:103E3000F0810120FBE70220F9E700000849002299
:103E400010B50B5C4BB901220A5401EB8002084407
:103E50005168007A096888470246104610BD000084
:103E6000B4250020044B30B403EB8004184463688D
:103E7000007A1B6930BC1847B425002030B4054CCB
:103E800004EB800520446C68007AA468A44630BC2A
:103E900060470000B4250020034901EB800208447C
:103EA0005168007A49680847B425002030B4054CB1
:103EB00004EB800520446C68007AE468A44630BCBA
:103EC00060470000B425002038B5054600F036FAFA
:103ED00004000FD16946284601F030FE040009D1E4
:103EE0002869FFF761FE040000D1286000210098D6
:103EF00001F0E3FB204638BD2DE9F74181B0904643
:103F000002980090684600F084FD040003D50B2061
:103F100004B0BDE8F081164E002756F824503DB19C
:103F20002846FFF761FD286900F054FB88B12F7027
:103F3000019929B101F8107BE0B200F03EFB40B1DD
:103F4000019846F8240010B1B8F1010F03D0002009
:103F5000DEE70220DCE7002201A902A800F04CFB0A
:103F600004460146019801F0A8FB2046D0E7000076
:103F70005C0000202DE9F743050092B00BD002F061
:103F80003F06694613A8324600F036FB04004FF0A6
:103F9000000804D0F3E0092015B0BDE8F0830098D4
:103FA0001399059005A800F073FC04000ED19DF84C
:103FB0004300000601D5062408E0700801D0012165
:103FC00000E0002105A8FFF7E1FC044616F01C0FF5
:103FD0005DD04FF00109C4B1042C10D16D4900200F
:103FE00002E0401C022804D201EB00121268002AF1
:103FF000F7D1022807D005A8FFF7A5FE044646F032
:1040000008065CB1BBE01224B9E09DF81A0010F07C
:10401000110F48D1700701D50824B0E0300748D50A
:1040200000F0F5FC07460D9839460E3001F0CCFA49
:104030000D983946163001F0C7FA0D982021C1724B
:104040000D99009800F04AFD0D990022074600984E
:1040500001F0A6FA0D9800211C3001F0B5FA009984
:1040600081F803901FB3D1F83490002205A8394697
:1040700001F05CFA040009D10098494600F0B7FD50
:1040800004000098A7F1010747610ED077E0002CEB
:1040900075D19DF81A00C10601D504246FE0B1075F
:1040A00003D5C00701D0072469E0300701D546F0E9
:1040B00040060098406B68620D98A862700801D0B5
:1040C000012100E0002105A800F0C8FC2861B8B378
:1040D0000D99009800F002FDA8600D981C3000F0CA
:1040E00010FDC5F82C800146E96005F1300000990B
:1040F0004FF48052296081460099C988A980002127
:104100002E7585F81580C5F82080C5F8188000F058
:1041100067FDB00635D5EE689EB3AE610098A9681C
:104120004789808947430FE0284600F0FBFB0128C0
:10413000014600D80224481C03D0F61B24B105E038
:1041400025E00124F61B01E0BE42EDD8E961B4B9D7
:1041500000988289B6FBF2F302FB13628AB1FFF783
:1041600066FCA0B1009901238A89B6FBF2F20244F1
:104170002A6248784946FFF781FE10B10124C5F84C
:1041800000800098214601F098FA204604E70224B6
:10419000F5E70000942500202DE9F04F89B0154681
:1041A000002299460446884601A91A6001F0C6FC1F
:1041B000060001D1667D3EB10198314601F07DFADD
:1041C000304609B0BDE8F08F207DC0070BD0A26952
:1041D0000127E16804F1300B4FF0020A881A85428A
:1041E00000D90546A1E00198072101F066FA0720F1
:1041F000E7E70198A1698289B1FBF2F302FB13138F
:10420000002B73D1B1FBF2F64089401E064011D15C
:1042100029B1E06A28B12046FFF7F6FB05E0A06867
:1042200003E0E169204600F07DFB02281ED3411C1B
:1042300052D0E061E1690198FFF7F9FBB0B1019953
:10424000304403908889B5FBF0F0049058B3049A89
:1042500048893244824201D9801B04904878414603
:10426000DDE90323FFF70AFEB0BB07E084F815A0E1
:104270000221019801F021FA0220A2E7207D000628
:104280000CD5216A0398081A0499884206D201992C
:104290008A89594600FB028000F099FC01988689C2
:1042A0000498464337E0226A039882421CD0207D5E
:1042B000000609D5487801235946FFF7F7FD58B99C
:1042C000207D00F07F00207501980123039A594654
:1042D0004078FFF7D3FD38B167750121019801F0EF
:1042E000ECF901206DE701E0039820620198A169D3
:1042F0008089B1FBF0F200FB1212861AAE4200D99F
:104300002E46B1FBF0F200FB121032460119404676
:10431000303100F05CFCA169AD1BB0448819A0618C
:10432000D9F800003044C9F80000002D7FF461AFD7
:104330000198002101F0C1F9002042E7F8B50446D8
:10434000694601F0FBFB050043D1207D410640D5C5
:10435000000612D500980123226A04F1300140784A
:10436000FFF7A4FD28B10098012101F0A6F9012072
:10437000F8BD207D00F07F00207500F048FB616AE9
:104380000646009800F033FC050022D1A56A2946B4
:10439000E87A40F02000E872A268206801F000F995
:1043A000E16805F11C0001F00FF905F11600314636
:1043B00001F00AF9002105F1120001F00DF9009851
:1043C0000121C17001F00CF90546207D00F0BF000D
:1043D00020750098294601F070F92846F8BD2DE9AE
:1043E000F04F89B01546002299460446884601A937
:1043F0001A6001F0A3FB060001D1667D3EB1019871
:10440000314601F05AF9304609B0BDE8F08F207D01
:10441000800705D40198072101F04FF90720F3E741
:10442000A069012704F1300B4FF0020A411900D3B3
:10443000C543B5E0019AA1699089B1FBF0F300FB97
:104440001313002B69D1B1FBF0F65289521E1640AE
:1044500018D129B1E06A38B12046FFF7D5FA07E054
:10446000A06838B9002100E0E1692046FFF7EBFAC7
:1044700000287ED0012830D0411C5ED0A168E061C8
:1044800001B9A060207D00060BD501980123226AA6
:1044900059464078FFF70AFDE8BB207D00F07F0019
:1044A0002075E1690198FFF7C2FAB0B10199304473
:1044B00002908889B5FBF0F0049068B3049A4889AB
:1044C0003244824201D9801B049048784146049BC3
:1044D000029AFFF7EBFCF0B907E084F815A002217F
:1044E000019801F0EAF802208EE7216A0298081A82
:1044F000049988420AD201998A8900FB02815846B0
:1045000000F065FB207D00F07F0020750198868912
:104510000498464335E010E000E017E0226A029874
:10452000824211D0E268A06990420DD248780123FE
:10453000029A5946FFF7A2FC30B167750121019834
:1045400001F0BBF801205FE7029820620198A169A1
:104550008089B1FBF0F200FB1212861AAE4200D93C
:104560002E46B1FBF0F200FB1210324641462044C9
:1045700000E018E0303000F02AFB207D40F08000A1
:104580002075A269B044E1689019A061884200D802
:104590000846E060D9F80000AD1B8119C9F8001089
:1045A000002D7FF447AF207D002140F040002075B2
:1045B000019801F082F8002026E738B500200C466B
:1045C00001210090684600F0C9FB0028206000D05F
:1045D000012038BD10B500F0D4FB012010BD00F063
:1045E000DDBB10B500244FF47A7100F0FFFB00B979
:1045F0000124204610BD00002DE9FF410027904610
:104600000E460F6000F005FA050003D50B2004B03C
:10461000BDE8F0819B4850F82540BCB1204600F031
:1046200080FAA8B1346008F0FE06207820B16078E6
:10463000FFF732FCC1070DD02770B846E8B26070B2
:10464000FFF7FCFBC1070AD00320E0E70C20DEE700
:104650000F20DCE70EB1400704D40020D7E71EB1DD
:10466000400701D50A20D2E76078022104F10C024C
:10467000FFF7F8FBF0BBA089A0F50071B1F5606F02
:1046800040D8411E08423DD1002620463146FFF762
:1046900045F9022822D100254FEA0D0704EB051049
:1046A00090F8FA1100F5FB7019B1083000F029FA02
:1046B00000E0002047F825006D1C042DEED30025F6
:1046C00057F8256036B131462046FFF727F9022812
:1046D00001D203E003206D1C042DF1D3042811D076
:1046E00002287AD204F1430000F016FAA189884228
:1046F00073D100E006E004F14E0000F00DFA010075
:1047000002D006E0012082E704F15C0000F0F9F934
:10471000014694F848502162012DA57001D0022D68
:104720005BD14D4394F845006081E8B3411E0842D7
:1047300053D104F1490000F0EFF9A1892081490922
:10474000B0FBF1F201FB120070BB04F14B0000F072
:10475000E3F9070004D104F1580000F0D2F907464C
:1047600004F1460000F0D8F9020036D0A0895119B2
:1047700023894009B3FBF0F001448F422DD36089B7
:104780007F1AB7FBF0F078B103274FF6F57C604550
:1047900000D8022740F6F57C604500D80127801C30
:1047A00032443144216300E017E0E061032FC4E9A3
:1047B000096214D08BB15119E162022F20D000F0B0
:1047C000010100EB400001EB5000A189401E226A6C
:1047D0000844B0FBF1F0904214D90D2017E704F122
:1047E000620000F099F90028F7D120890028F4D15F
:1047F00004F1640000F085F9E169E0628800E4E713
:104800004000E2E74FF0FF31A16180206161032F9A
:1048100020712CD104F1680000F07EF9012826D126
:10482000711C204600F0E3F908BB04F2362084F83E
:10483000048000F071F9A0F52A41553917D104F12F
:10484000380000F05EF91049884210D104F5077075
:1048500000F057F90D49884209D104F5087000F0BD
:1048600050F9A06104F5097000F04BF9606105484A
:104870002770001F0188491C01802046E180FFF756
:10488000B3F8EAE65C000020525261417272416165
:1048900073B505680446019801E0401C0190017859
:1048A0002F29FAD05C29F8D00021A1600198007866
:1048B000202806D2802084F82F002046FFF776FAC1
:1048C0007CBD01A92046FFF711F90028F8D1204648
:1048D000FFF784F994F82F1028B10428F0D1490784
:1048E000EED405207CBD4907FCD4A079C006F8D5DC
:1048F000A9896069B0FBF1F201FB12004119284659
:10490000383100F0EBF8A060DBE7000013B5044895
:1049100001224FF6FF736946FDF78EFC00981CBD1F
:10492000480100202DE9F041046802290D460BD30F
:10493000E069A84208D920784FF0FF36012807D057
:10494000022835D003284AD001263046BDE8F08140
:10495000A08905EB5507A16AB7FBF0F0014420469A
:1049600000F045F90028F0D1A08907F10108B7FB54
:10497000F0F100FB1171B8FBF0F0214491F83870B0
:10498000A16A0144204600F032F90028DDD1A08957
:10499000E907B8FBF0F200FB1280204490F83810D1
:1049A00047EA012001D00609CFE7C0F30B06CCE7A8
:1049B000A189A06A4908B5FBF1F10144204600F045
:1049C00016F90028C1D1A0896900B1FBF0F200FB03
:1049D00012102044383000F09FF80646B5E7A18950
:1049E000A06A8908B5FBF1F10144204600F0FFF808
:1049F0000028AAD1A089A900B1FBF0F200FB121097
:104A00002044383000F07DF820F070469DE700200B
:104A1000704710B5026804464FF0FF30002A13D0EB
:104A2000114600E0491C0B78212B0ED33A2BF9D10B
:104A300012F8013B303B0A2B06D28A4204D1002BEC
:104A400002D1491C1846216010BD002010BDEFF3B3
:104A50000580002800D0012070470000F0B51E4AF4
:104A6000034605685FF0000002EB00142668AE42C2
:104A700007D166689F68BE4203D1A4685E69B442EC
:104A800002D0401C0228EFD3022814D1002002E0FB
:104A9000401C022804D202EB00142468002CF7D139
:104AA00002280ED002EB0014002625609D68656088
:104AB0005B69A360A681002902EB0011898902D0FD
:104AC00019B10020F0BD491C01E04FF4807102EBE8
:104AD0000012401C9181F0BD9425002070B50D4658
:104AE000064601F11A0000F017F804463078032852
:104AF00005D105F1140000F00FF844EA0044204607
:104B000070BD837842780178C07843EA002042EA99
:104B1000002041EA002070470178407841EA0020F7
:104B2000704710B528B10069FFF75BFD08B101209F
:104B300010BD002010BD000086B0FBF7D5FFFEF7CA
:104B40008BFBFDF7E3FB1948016841F4800101602C
:104B500000680022052100F4800005903B20FCF74E
:104B600033F83B20FCF722F8002205214520FCF712
:104B70002BF84520FCF71AF80E4800210C4AC0E932
:104B800000218160C160016141618161FDF7ECFB41
:104B9000094914226846FBF7C6FB0021684600F06D
:104BA00059F90649486000F04BF8FEE730380240FA
:104BB000002C0140C4000020E8670008000000202D
:104BC000842801464FF0000000D0C81C7047002A1E
:104BD00005D011F8013B521E00F8013BF9D1704796
:104BE0005FFA81F1521E00F8011BFBD1704770B5CE
:104BF0000446406B00260D46A8420FD0204600F028
:104C000033FD06000AD16078012304F138012A46F9
:104C1000FFF734F908B1751E01266563304670BD93
:104C200010B500B9012000F06DFE002010BD10B5D8
:104C300001F018FC012801D0012010BD002010BD9A
:104C400010B500F00BFF002010BD10B5FFF7FFFE00
:104C500018B1BDE8104001F019BCBDE8104001F0EA
:104C60000FBC0022D0E9000100F0ECBF2DE9FF41AC
:104C70000D004FF000060746CDE901651ED0501C1F
:104C8000344603961FD002B11446FFF7E0FE694692
:104C90004FF01008E8B1091D284603AA01F05CFA9C
:104CA000012813D000960398E8B114494FF08050C2
:104CB0000860BFF34F8FBFF36F8F14E08020314641
:104CC0002A46009011E04FF0FF34DEE7CDF8008077
:104CD000E9E7091D2246284601F09AF9012808D083
:104CE00054B1402000909DE8070087E80700BDE828
:104CF000FF81CDF80080F6E70020F3E704ED00E047
:104D000037B582B0054614004FF00000009000D186
:104D10000124FFF79CFE4FF0000388B103A96A4607
:104D2000284601F0B9F8012811D1009890B10A493C
:104D30004FF080500860BFF34F8FBFF36F8F09E0D3
:104D400003A92246284600F0EFFF012802D0FF20E9
:104D500005B030BD0020FBE704ED00E0012910B5EF
:104D600001D0002010BD03220021012000F06AFFC5
:104D7000040004D000231A46194600F0D5FF20464F
:104D800010BD10B50446FFF762FE08B1822010BDC9
:104D9000204600F08FFD002010BD000038B5002433
:104DA00005460094FFF753FE90B16946284601F08E
:104DB000D9F8012801D0FF2038BD009888B10A49F0
:104DC0004FF080500860BFF34F8FBFF36F8F08E044
:104DD000002328461A46194600F0A6FF012800D0F5
:104DE000FF24204638BD000004ED00E038B5050082
:104DF0004FF00000009010D0481C4FF000040ED07F
:104E000001B10C46FFF723FEB8B100216A462846DF
:104E100001F0A2F9012816D104E0802038BD4FF03E
:104E2000FF34EFE7009880B109494FF080500860E7
:104E3000BFF34F8FBFF36F8F07E02146284601F085
:104E4000DFF9012801D0FF2038BD002038BD000067
:104E500004ED00E03EB50D460446B0F90800FFF74A
:104E6000AFFE02A92B46CDE90001228AD4E9001049
:104E700092B201F0CBFA012801D000203EBD029889
:104E80003EBD00002DE9F041184C0F46054666690D
:104E90002068001D00F01DFC38B922680121A069BE
:104EA00092F82C2091408843A061681C07D137B14B
:104EB0002168BDE8F0410E48091D00F043BC2068A0
:104EC0003544B5424560216805D2A068091DBDE89A
:104ED000F04100F01FBC6068091D00F01BFC206B56
:104EE000854200D22563BDE8F0810000600000200B
:104EF000DC2600202DE9F041054600F02FFC2E4C69
:104F00002E4F2069401C2061206810B1E06940B339
:104F10002DE025602069012829D1002606EB8600B6
:104F200007EB800000F0E8FB761C072EF6D3234841
:104F30008C3000F0E1FB2148A03000F0DDFB1F4881
:104F4000B43000F0D9FB1D48C83000F0D5FB1B4839
:104F5000DC3000F0D1FB19488C3060601430A06068
:104F600005E0E86A2168C96A814200D8256001200D
:104F7000E16A491CE162E96AA26988401043A061C4
:104F800001EB8100291D07EB800000F0DBFB00F046
:104F900009FCE06900280CD02068E96AC06A8842F0
:104FA00007D207494FF080500860BFF34F8FBFF31F
:104FB0006F8FBDE8F0810000600000200026002017
:104FC00004ED00E030B4026C0B46002A0BD0C1683F
:104FD00044681144C160A14201D30168C160184610
:104FE00030BCFBF7A0B930BC70472DE9F041856BB0
:104FF0001746026C0446002682B1C7B1E068FBF791
:1050000092F9E168206C2268091AE160914202D2AB
:105010006168081AE060022F16D017E02068A8B96E
:10502000606801F0A1FA0646002060600EE0A0680A
:10503000FBF779F9D4E90110226C1044A060884292
:1050400004D32068A06001E005B16D1E6D1CA5634E
:105050003046BDE8F08110B50446006B00F0B8FBA7
:105060002046BDE8104000F0B3BB000011484FF4EB
:10507000705110B5420706D00E49C01D20F0070040
:10508000411AC1F570510C4C002301440839A4F1B8
:10509000100221F00701C4E900030C1A11604B60F3
:1050A0000B60C0E9001494604FF000415460D1607F
:1050B00010BD0000F0260020AC000020144E4FF080
:1050C0008058144CDFF85090A6F1C80712E000BFDA
:1050D00000F044FBF068C568281D00F0FAFA20696A
:1050E000401E2061E068401EE06000F05BFB284647
:1050F000FFF7B1FFE0680028EAD138680128F9D944
:10510000C9F80080BFF34F8FBFF36F8FF2E7000045
:10511000C82600206000002004ED00E02DE9F047E3
:105120009A4681466FF00303DDE9098403EB8202AE
:10513000089D206B104420F00706700709D072B656
:10514000502080F31188BFF34F8FBFF36F8F62B68B
:10515000FEE723180A5C83F834200A5C12B1401C75
:105160001028F6D3002784F84370072D00D30625B6
:10517000E562201DC4E9115700F0C9FA04F11800D6
:1051800000F0C5FAE764C5F10700A06184F850702B
:105190005246246149463046646200F0AFF9B8F1E6
:1051A000000F206001D0C8F80040BDE8F087000083
:1051B00030B5114900E011460A688242FBD34B68C2
:1051C0005C18844203D14468084623444B6043681A
:1051D0001D18954209D1084C103C2468A24209D000
:1051E00052681A4442600A6812680260814200D024
:1051F000086030BD0460F9E7AC00002010B504463B
:1052000000F0ACFAA06B28B15FF0000400F0CAFA1D
:10521000204610BD0124F9E706484168096829B114
:105220004168C968C9684968016370474FF0FF3138
:10523000FAE70000600000200A484068401C72B68F
:105240004FF0500080F3118805D0BFF34F8FBFF3AC
:105250006F8F62B6FEE7BFF34F8FBFF36F8F62B6FB
:10526000FEE70000B40000202DE9F041044600F004
:1052700075FA94F9455004F1240609E0606A48B1D2
:10528000304601F011FA08B100F06CFB6D1E6DB2F2
:10529000002DF3DC4FF0FF3684F8456000F082FA11
:1052A00000F05CFA94F9445004F1100709E0206919
:1052B00048B1384601F0F8F908B100F053FB6D1E13
:1052C0006DB2002DF3DC84F84460BDE8F04100F0DD
:1052D00069BA2DE9F047022917460D4604464FF0FA
:1052E00002067ED3E069A8427BD920784FF00109FD
:1052F000012804D0022843D003287DD157E0A1899A
:1053000005EB5508A26AB8FBF1F081182046FFF7BB
:105310006EFC060070D1A2894046EE07B8FBF2F39E
:1053200008F1010802FB1300204400F1380004D00A
:105330000178FAB262F31F1100E03946017084F877
:105340000390A189A26AB8FBF1F081182046FFF70B
:105350004EFC060050D1A189EB07B8FBF1F201FB2E
:105360001280204400F1380002D0C7F3071105E095
:105370000178C7F3032201F0F0011143017039E015
:10538000A189A06A4908B5FBF1F101442046FFF765
:105390002EFC060030D1A0896900B1FBF0F200FBC1
:1053A0001210B9B22044383000F016F922E0A18979
:1053B000A06A8908B5FBF1F101442046FFF717FC0C
:1053C000060019D1A089AD00B5FBF0F100FB11502A
:1053D00020443830FFF795FB67F31B000146A08996
:1053E00000E009E0B5FBF0F200FB12502044383039
:1053F00000F0EAF884F803903046BDE8F08700003A
:105400002DE9F0410027044600F060FB344E30687F
:1054100008B9FFF72BFEF06804424FD1E4B308341B
:10542000600710D004F00700C0F1080004446007D2
:1054300009D072B6502080F31188BFF34F8FBFF3AD
:105440006F8F62B6FEE73CB37068844236D824485A
:10545000103001460D6801E028460D466968A142FA
:1054600002D229680029F7D131688D4226D0076819
:105470002968016008376868011B102911D92819AB
:1054800042070AD072B6502080F31188BFF34F8FC5
:10549000BFF36F8F62B6FEE710E041606C60FFF70C
:1054A00087FE69687068401A7060B268904200D2E6
:1054B000B0600020F2681143C5E9000101F030F945
:1054C000780709D072B6502080F31188BFF34F8F50
:1054D000BFF36F8F62B6FEE73846BDE8F08100008B
:1054E0009C0000200449086818B10868826C521CAE
:1054F00082640868704700006000002070B5041FD7
:10550000094E231F4FF0807521F0010125601C1FFB
:105510001960A0F120010B1F266044380A606FF06B
:1055200002051D6070BD0000395200082DE9F041F0
:105530000568022913460E4607462DD3E869B04296
:105540002AD93BB14FF0FF3219462846FFF7C1FE7A
:1055500000281FD131463846FFF7E4F9040018D07F
:10556000012C19D0601C19D0002231462846FFF7C3
:10557000B0FE00280ED1D5E90610821E914205D258
:105580002A79491CA96142F001022A712646B042DB
:10559000E0D80020BDE8F0810220FBE70120F9E718
:1055A00070B50C46154691B2064604F11A0000F09B
:1055B00013F83078032806D1290C04F11400BDE853
:1055C000704000F009B870BD0A0A01704270110AFB
:1055D00081700A0AC27070470A0A017042707047EF
:1055E00070B5044600F040F8050036D12078032855
:1055F0002CD12079012829D104F13800A289002179
:105600000646FFF7EDFA04F236204AF65521FFF779
:10561000E3FF13493046FFF7D7FF124904F507703F
:10562000FFF7D2FFA16904F50870FFF7CDFF6169AC
:1056300004F50970FFF7C8FF626A01233146521C66
:1056400062636078FEF732FC0020207100226078EF
:105650001146FEF707FC00B10125284670BD000089
:1056600052526141727241612DE9F0410446C078A5
:105670000027F8B1656B04F13801607801232A46F0
:105680008846FEF713FC08B1012713E0A26A002048
:10569000216AAA1AE0708A420CD2A67808E0206A31
:1056A00001234146054460782A46FEF7FFFB761E3B
:1056B000022EF4D23846BDE8F081002808D00C292B
:1056C00006D00B2904D00F2902D00069FEF787BF4E
:1056D0007047D0E9013201699A60D0E901235A602C
:1056E0004A68824201D182684A60002202610868E9
:1056F000401E0860086870474FF0FF3300F1080152
:105700000022C0E901130260C160016170470021FD
:105710000161704730B50B685A1C02D000F10802D5
:1057200002E0026904E02246546825689D42FAD9E5
:1057300053684B6099608A60516008610168491C38
:10574000016030BD42684A6093688B60936859601D
:10575000916008610168491C0160704772B6502071
:1057600080F31188BFF34F8FBFF36F8F0B4962B681
:105770004868401C486001280ED10948006810F0B4
:10578000FF0F09D072B6502080F31188BFF34F8FFE
:10579000BFF36F8F62B6FEE770470000B4000020D1
:1057A00004ED00E00949486828B1401E486001D175
:1057B00080F31188704772B6502080F31188BFF3D0
:1057C0004F8FBFF36F8F62B6FEE70000B40000207A
:1057D00070B500282BD0164DA0F108046068E96868
:1057E000084209D172B6502080F31188BFF34F8F61
:1057F000BFF36F8F62B6FEE722684AB172B65020DF
:1058000080F31188BFF34F8FBFF36F8F62B6FEE74F
:105810008843606000F05AF960686968084468600D
:105820002046FFF7C5FCBDE8704000F079BF70BDB1
:105830009C0000204FF0E020002101614FF47A72BB
:105840008161072303490968B1FBF2F1491E4161F7
:10585000036170475400002010B5FAF71DFD13498D
:10586000102810D300F1E0200A7890F8F00390425D
:1058700009D272B6502080F31188BFF34F8FBFF367
:105880006F8F62B6FEE70A488968006800F4E0603E
:10589000884209D972B6502080F31188BFF34F8F28
:1058A000BFF36F8F62B6FEE710BD0000B4000020AA
:1058B0000CED00E010B5040006D000F00FF8204613
:1058C000BDE81040FFF784BF72B6502080F3118806
:1058D000BFF34F8FBFF36F8F62B6FEE7084A002118
:1058E00002EBC1035B68834206D102EBC1030020D7
:1058F00042F8310058607047491C0829F0D37047BE
:10590000C0250020020010B516D01048806B48B1A9
:1059100072B6502080F31188BFF34F8FBFF36F8FA3
:1059200062B6FEE700F0D2F800211046FFF7AAFAAF
:1059300000F0F6FE002807D105494FF080500860BE
:10594000BFF34F8FBFF36F8F10BD000060000020CA
:1059500004ED00E002498A6A0260496941607047CB
:10596000600000200149012048627047600000206B
:1059700010B50C4650B10A4909681831FFF7CAFE44
:105980002046BDE810400121FFF77CBA72B65020D6
:1059900080F31188BFF34F8FBFF36F8F62B6FEE7BE
:1059A0006000002070B50028044651D0A26CB2B14E
:1059B000606C884200D30146E06A884248D0012AE0
:1059C00046D1244D2A68944213D172B6502080F3F8
:1059D0001188BFF34F8FBFF36F8F62B6FEE772B6C9
:1059E000502080F31188BFF34F8FBFF36F8F62B6E3
:1059F000FEE7A269E162002A02DBC1F10701A161B1
:105A0000154E00EB8000616906EB800081421FD1DA
:105A1000201DFFF75EFE00284FF001000AD1E16A69
:105A200001EB810256F8222022B9AA6900FA01F19D
:105A30008A43AA61E16AAA6988401043A86101EB20
:105A40008100211D06EB8000BDE87040FFF77ABEA3
:105A500070BD00006000002000260020174818A13B
:105A60001CB5002480222346CDE90040164800F0F2
:105A7000CDFC01280BD0401C1ED172B6502080F303
:105A80001188BFF34F8FBFF36F8F62B6FEE75020D0
:105A900072B680F31188BFF34F8FBFF36F8F62B67A
:105AA00006484FF0FF32343801210263C16144617E
:105AB000BDE81C4000F066B81CBD0000940000204A
:105AC00049444C4500000000BD5000080248816B6D
:105AD000491C816370470000600000201548816BFD
